{
  "contractName": "CourseReview",
  "abi": [
    {
      "anonymous": false,
      "inputs": [
        {
          "indexed": false,
          "internalType": "uint256",
          "name": "id",
          "type": "uint256"
        },
        {
          "indexed": false,
          "internalType": "address",
          "name": "reviewer",
          "type": "address"
        },
        {
          "indexed": false,
          "internalType": "string",
          "name": "courseName",
          "type": "string"
        },
        {
          "indexed": false,
          "internalType": "uint256",
          "name": "rating",
          "type": "uint256"
        }
      ],
      "name": "ReviewSubmitted",
      "type": "event"
    },
    {
      "inputs": [],
      "name": "nextReviewId",
      "outputs": [
        {
          "internalType": "uint256",
          "name": "",
          "type": "uint256"
        }
      ],
      "stateMutability": "view",
      "type": "function"
    },
    {
      "inputs": [
        {
          "internalType": "uint256",
          "name": "",
          "type": "uint256"
        }
      ],
      "name": "reviews",
      "outputs": [
        {
          "internalType": "uint256",
          "name": "id",
          "type": "uint256"
        },
        {
          "internalType": "address",
          "name": "reviewer",
          "type": "address"
        },
        {
          "internalType": "string",
          "name": "courseName",
          "type": "string"
        },
        {
          "internalType": "string",
          "name": "reviewText",
          "type": "string"
        },
        {
          "internalType": "uint256",
          "name": "rating",
          "type": "uint256"
        },
        {
          "internalType": "uint256",
          "name": "timestamp",
          "type": "uint256"
        }
      ],
      "stateMutability": "view",
      "type": "function"
    },
    {
      "inputs": [],
      "name": "tokenReward",
      "outputs": [
        {
          "internalType": "uint256",
          "name": "",
          "type": "uint256"
        }
      ],
      "stateMutability": "view",
      "type": "function"
    },
    {
      "inputs": [
        {
          "internalType": "address",
          "name": "",
          "type": "address"
        }
      ],
      "name": "tokens",
      "outputs": [
        {
          "internalType": "uint256",
          "name": "",
          "type": "uint256"
        }
      ],
      "stateMutability": "view",
      "type": "function"
    },
    {
      "inputs": [
        {
          "internalType": "string",
          "name": "_courseName",
          "type": "string"
        },
        {
          "internalType": "string",
          "name": "_reviewText",
          "type": "string"
        },
        {
          "internalType": "uint256",
          "name": "_rating",
          "type": "uint256"
        }
      ],
      "name": "submitReview",
      "outputs": [],
      "stateMutability": "nonpayable",
      "type": "function"
    },
    {
      "inputs": [
        {
          "internalType": "address",
          "name": "_user",
          "type": "address"
        }
      ],
      "name": "getTokenBalance",
      "outputs": [
        {
          "internalType": "uint256",
          "name": "",
          "type": "uint256"
        }
      ],
      "stateMutability": "view",
      "type": "function"
    },
    {
      "inputs": [
        {
          "internalType": "uint256",
          "name": "_id",
          "type": "uint256"
        }
      ],
      "name": "getReview",
      "outputs": [
        {
          "components": [
            {
              "internalType": "uint256",
              "name": "id",
              "type": "uint256"
            },
            {
              "internalType": "address",
              "name": "reviewer",
              "type": "address"
            },
            {
              "internalType": "string",
              "name": "courseName",
              "type": "string"
            },
            {
              "internalType": "string",
              "name": "reviewText",
              "type": "string"
            },
            {
              "internalType": "uint256",
              "name": "rating",
              "type": "uint256"
            },
            {
              "internalType": "uint256",
              "name": "timestamp",
              "type": "uint256"
            }
          ],
          "internalType": "struct CourseReview.Review",
          "name": "",
          "type": "tuple"
        }
      ],
      "stateMutability": "view",
      "type": "function"
    },
    {
      "inputs": [],
      "name": "getTotalReviews",
      "outputs": [
        {
          "internalType": "uint256",
          "name": "",
          "type": "uint256"
        }
      ],
      "stateMutability": "view",
      "type": "function"
    }
  ],
  "bytecode": "0x6080604052600a60035534801561001557600080fd5b5061103b806100256000396000f3fe608060405234801561001057600080fd5b50600436106100885760003560e01c80636e66f6e91161005b5780636e66f6e914610115578063990581b614610133578063e486033914610163578063e83ddcea1461019357610088565b80631405aa251461008d57806325f60082146100a9578063396e77e7146100c75780633aecd0e3146100e5575b600080fd5b6100a760048036038101906100a291906109be565b6101c8565b005b6100b16103de565b6040516100be9190610c86565b60405180910390f35b6100cf6103ea565b6040516100dc9190610c86565b60405180910390f35b6100ff60048036038101906100fa9190610995565b6103f0565b60405161010c9190610c86565b60405180910390f35b61011d610439565b60405161012a9190610c86565b60405180910390f35b61014d60048036038101906101489190610a3d565b61043f565b60405161015a9190610c64565b60405180910390f35b61017d60048036038101906101789190610995565b610680565b60405161018a9190610c86565b60405180910390f35b6101ad60048036038101906101a89190610a3d565b610698565b6040516101bf96959493929190610ca1565b60405180910390f35b600181101580156101da575060058111155b610219576040517f08c379a000000000000000000000000000000000000000000000000000000000815260040161021090610c44565b60405180910390fd5b60006040518060c0016040528060025481526020013373ffffffffffffffffffffffffffffffffffffffff1681526020018581526020018481526020018381526020014281525090806001815401808255809150506001900390600052602060002090600602016000909190919091506000820151816000015560208201518160010160006101000a81548173ffffffffffffffffffffffffffffffffffffffff021916908373ffffffffffffffffffffffffffffffffffffffff16021790555060408201518160020190805190602001906102f6929190610814565b506060820151816003019080519060200190610313929190610814565b506080820151816004015560a082015181600501555050600354600160003373ffffffffffffffffffffffffffffffffffffffff1673ffffffffffffffffffffffffffffffffffffffff168152602001908152602001600020600082825461037b9190610dea565b925050819055507f2ba6a59a7e96f818ccdf3cb7e9708d863633bbb0f1080d699c14e336d75ca3486002543385846040516103b99493929190610d10565b60405180910390a1600260008154809291906103d490610ef0565b9190505550505050565b60008080549050905090565b60025481565b6000600160008373ffffffffffffffffffffffffffffffffffffffff1673ffffffffffffffffffffffffffffffffffffffff168152602001908152602001600020549050919050565b60035481565b61044761089a565b600080549050821061048e576040517f08c379a000000000000000000000000000000000000000000000000000000000815260040161048590610c24565b60405180910390fd5b600082815481106104c8577f4e487b7100000000000000000000000000000000000000000000000000000000600052603260045260246000fd5b90600052602060002090600602016040518060c0016040529081600082015481526020016001820160009054906101000a900473ffffffffffffffffffffffffffffffffffffffff1673ffffffffffffffffffffffffffffffffffffffff1673ffffffffffffffffffffffffffffffffffffffff16815260200160028201805461055190610ebe565b80601f016020809104026020016040519081016040528092919081815260200182805461057d90610ebe565b80156105ca5780601f1061059f576101008083540402835291602001916105ca565b820191906000526020600020905b8154815290600101906020018083116105ad57829003601f168201915b505050505081526020016003820180546105e390610ebe565b80601f016020809104026020016040519081016040528092919081815260200182805461060f90610ebe565b801561065c5780601f106106315761010080835404028352916020019161065c565b820191906000526020600020905b81548152906001019060200180831161063f57829003601f168201915b50505050508152602001600482015481526020016005820154815250509050919050565b60016020528060005260406000206000915090505481565b600081815481106106a857600080fd5b90600052602060002090600602016000915090508060000154908060010160009054906101000a900473ffffffffffffffffffffffffffffffffffffffff16908060020180546106f790610ebe565b80601f016020809104026020016040519081016040528092919081815260200182805461072390610ebe565b80156107705780601f1061074557610100808354040283529160200191610770565b820191906000526020600020905b81548152906001019060200180831161075357829003601f168201915b50505050509080600301805461078590610ebe565b80601f01602080910402602001604051908101604052809291908181526020018280546107b190610ebe565b80156107fe5780601f106107d3576101008083540402835291602001916107fe565b820191906000526020600020905b8154815290600101906020018083116107e157829003601f168201915b5050505050908060040154908060050154905086565b82805461082090610ebe565b90600052602060002090601f0160209004810192826108425760008555610889565b82601f1061085b57805160ff1916838001178555610889565b82800160010185558215610889579182015b8281111561088857825182559160200191906001019061086d565b5b50905061089691906108e6565b5090565b6040518060c0016040528060008152602001600073ffffffffffffffffffffffffffffffffffffffff168152602001606081526020016060815260200160008152602001600081525090565b5b808211156108ff5760008160009055506001016108e7565b5090565b600061091661091184610d8d565b610d5c565b90508281526020810184848401111561092e57600080fd5b610939848285610e7c565b509392505050565b60008135905061095081610fd7565b92915050565b600082601f83011261096757600080fd5b8135610977848260208601610903565b91505092915050565b60008135905061098f81610fee565b92915050565b6000602082840312156109a757600080fd5b60006109b584828501610941565b91505092915050565b6000806000606084860312156109d357600080fd5b600084013567ffffffffffffffff8111156109ed57600080fd5b6109f986828701610956565b935050602084013567ffffffffffffffff811115610a1657600080fd5b610a2286828701610956565b9250506040610a3386828701610980565b9150509250925092565b600060208284031215610a4f57600080fd5b6000610a5d84828501610980565b91505092915050565b610a6f81610e40565b82525050565b610a7e81610e40565b82525050565b6000610a8f82610dbd565b610a998185610dc8565b9350610aa9818560208601610e8b565b610ab281610fc6565b840191505092915050565b6000610ac882610dbd565b610ad28185610dd9565b9350610ae2818560208601610e8b565b610aeb81610fc6565b840191505092915050565b6000610b03601583610dd9565b91507f52657669657720646f6573206e6f7420657869737400000000000000000000006000830152602082019050919050565b6000610b43601e83610dd9565b91507f526174696e67206d757374206265206265747765656e203120616e64203500006000830152602082019050919050565b600060c083016000830151610b8e6000860182610c06565b506020830151610ba16020860182610a66565b5060408301518482036040860152610bb98282610a84565b91505060608301518482036060860152610bd38282610a84565b9150506080830151610be86080860182610c06565b5060a0830151610bfb60a0860182610c06565b508091505092915050565b610c0f81610e72565b82525050565b610c1e81610e72565b82525050565b60006020820190508181036000830152610c3d81610af6565b9050919050565b60006020820190508181036000830152610c5d81610b36565b9050919050565b60006020820190508181036000830152610c7e8184610b76565b905092915050565b6000602082019050610c9b6000830184610c15565b92915050565b600060c082019050610cb66000830189610c15565b610cc36020830188610a75565b8181036040830152610cd58187610abd565b90508181036060830152610ce98186610abd565b9050610cf86080830185610c15565b610d0560a0830184610c15565b979650505050505050565b6000608082019050610d256000830187610c15565b610d326020830186610a75565b8181036040830152610d448185610abd565b9050610d536060830184610c15565b95945050505050565b6000604051905081810181811067ffffffffffffffff82111715610d8357610d82610f97565b5b8060405250919050565b600067ffffffffffffffff821115610da857610da7610f97565b5b601f19601f8301169050602081019050919050565b600081519050919050565b600082825260208201905092915050565b600082825260208201905092915050565b6000610df582610e72565b9150610e0083610e72565b9250827fffffffffffffffffffffffffffffffffffffffffffffffffffffffffffffffff03821115610e3557610e34610f39565b5b828201905092915050565b6000610e4b82610e52565b9050919050565b600073ffffffffffffffffffffffffffffffffffffffff82169050919050565b6000819050919050565b82818337600083830152505050565b60005b83811015610ea9578082015181840152602081019050610e8e565b83811115610eb8576000848401525b50505050565b60006002820490506001821680610ed657607f821691505b60208210811415610eea57610ee9610f68565b5b50919050565b6000610efb82610e72565b91507fffffffffffffffffffffffffffffffffffffffffffffffffffffffffffffffff821415610f2e57610f2d610f39565b5b600182019050919050565b7f4e487b7100000000000000000000000000000000000000000000000000000000600052601160045260246000fd5b7f4e487b7100000000000000000000000000000000000000000000000000000000600052602260045260246000fd5b7f4e487b7100000000000000000000000000000000000000000000000000000000600052604160045260246000fd5b6000601f19601f8301169050919050565b610fe081610e40565b8114610feb57600080fd5b50565b610ff781610e72565b811461100257600080fd5b5056fea26469706673582212205c48e6bd1b7e3d13c6e2b49231376f2c8b0a45b9c5f86c0addaabb851a1dfe0464736f6c63430008000033",
  "immutableReferences": {},
  "source": "// SPDX-License-Identifier: MIT\r\npragma solidity ^0.8.0;\r\n\r\ncontract CourseReview {\r\n    struct Review {\r\n        uint256 id;\r\n        address reviewer;\r\n        string courseName;\r\n        string reviewText;\r\n        uint256 rating;\r\n        uint256 timestamp;\r\n    }\r\n\r\n    Review[] public reviews;\r\n    mapping(address => uint256) public tokens;\r\n    uint256 public nextReviewId;\r\n    uint256 public tokenReward = 10; // Number of tokens for each review\r\n\r\n    // Event to notify when a new review is submitted\r\n    event ReviewSubmitted(uint256 id, address reviewer, string courseName, uint256 rating);\r\n\r\n    // Function to submit a new review\r\n    function submitReview(string memory _courseName, string memory _reviewText, uint256 _rating) public {\r\n        require(_rating >= 1 && _rating <= 5, \"Rating must be between 1 and 5\");\r\n\r\n        reviews.push(Review({\r\n            id: nextReviewId,\r\n            reviewer: msg.sender,\r\n            courseName: _courseName,\r\n            reviewText: _reviewText,\r\n            rating: _rating,\r\n            timestamp: block.timestamp\r\n        }));\r\n\r\n        tokens[msg.sender] += tokenReward;\r\n\r\n        emit ReviewSubmitted(nextReviewId, msg.sender, _courseName, _rating);\r\n\r\n        nextReviewId++;\r\n    }\r\n\r\n    // Function to get the number of tokens a user has\r\n    function getTokenBalance(address _user) public view returns (uint256) {\r\n        return tokens[_user];\r\n    }\r\n\r\n    // Function to get a specific review\r\n    function getReview(uint256 _id) public view returns (Review memory) {\r\n        require(_id < reviews.length, \"Review does not exist\");\r\n        return reviews[_id];\r\n    }\r\n\r\n    // Function to get the total number of reviews\r\n    function getTotalReviews() public view returns (uint256) {\r\n        return reviews.length;\r\n    }\r\n}\r\n",
  "sourcePath": "C:\\Users\\souvi\\OneDrive\\Desktop\\souvik\\decentralized_course_review\\the-find\\contracts\\CourseReview.sol",
  "compiler": {
    "name": "solc",
    "version": "0.8.0+commit.c7dfd78e.Emscripten.clang"
  },
  "schemaVersion": "3.4.16",
  "updatedAt": "2024-08-27T19:55:27.297Z",
  "devdoc": {
    "kind": "dev",
    "methods": {},
    "version": 1
  },
  "userdoc": {
    "kind": "user",
    "methods": {},
    "version": 1
  }
}